:02000002D0002C
:1040000000400D00E4650D00000006000C000501F5
:084010000401DE0500000000C0
:04401800385F0D0000
:10401C0009480A49884208B505D0094A824202D0AB
:10402C00121A01F0CFFE0748074A0021121A01F0BC
:10403C00EFFE014808BD00BF74E2032054650D007B
:10404C00DCE20320DCE20320F0E7032070B500F093
:10405C0015FF074C074BE41AA40800251E46A54281
:10406C0004D056F8253098470135F8E770BD00BFED
:10407C0044650D0004650D0000F046B808B500F06D
:10408C0045F8BDE8084000F0BBBE00F02DBD00F0C7
:10409C0033BD00F031BD000008B5034A00210C20EF
:1040AC0000F096FCFEE700BF0D480D000078B0FA5A
:1040BC0080F040097047012303707047704700007F
:1040CC0038B584690A4B036005467CB16368013BD3
:1040DC0063605BB9236820469B689847A368013BE3
:1040EC00A3601BB923682046DB689847284638BD77
:1040FC00DC630D0010B50446FFF7E2FF20461C21DF
:10410C0001F0F3FC204610BD7047000070B564212F
:10411C00012001F074F8174D174C28604FF47A7198
:10412C00012001F06CF82060144800F001F938B15E
:10413C002968134800F038FB2168124800F034FB62
:10414C0000F066FB104D114C286000F061FB264618
:10415C00206023682A689B1AB3F5FA6F03DA00F023
:10416C0057FB3060F5E747F23050BDE8704000F087
:10417C0009BE00BFF0E30320F4E3032014E30320A3
:10418C0008E30320E0E20320E8E30320ECE3032050
:10419C0010B5D421044601F0A8FC204610BD000047
:1041AC0073B5174D174E184C00F012FB284601F052
:1041BC0097FB32461549284601F092FC144B0093AC
:1041CC0040F25B72134B1449204600F0E7F8134B96
:1041DC001349236032462046C4F8D05001F080FCCD
:1041EC00214600230F4A104800F0CAFA0F4A104823
:1041FC000023214602B0BDE8704000F0C1BA00BFF8
:10420C00ECE20320DCE2032014E30320CD400D009C
:10421C00675F0D004C5F0D00575F0D00AC5F0D002C
:10422C00C9400D006D5F0D0008E30320885F0D0091
:10423C00E0E2032008B5D0F8D00003681B6B984768
:10424C00003018BF012008BDF8B506460F461446CD
:10425C00C4B1D6F8D00003681B6B984708B900208E
:10426C00F8BDD6F8D000FA2C03682546A8BFFA256D
:10427C00DB682A463946984780B2241A8542A4B294
:10428C00E6D0ECE70120F8BD2DE9F8430646884658
:10429C0091461F461D460024D6F8D00003681B6BC0
:1042AC009847D0B1002D18DBD6F8D00003681B69F5
:1042BC00984760B1D6F8D00003685B69984708F856
:1042CC0004000134A4B24C4507D03D46ECE70A3D4E
:1042DC000A202DB200F056FDDEE72046BDE8F8833B
:1042EC0070B5044600F1220596220021284601F003
:1042FC008FFD6168284601F0F5FDD4F8D0002289C5
:10430C00036829465E6A0023B047003018BF0120BD
:10431C0070BD10B50446D0F8D00003681B6B9847ED
:10432C0020B1D4F8D0000368DB6A9847012010BD97
:10433C0070B503689B6804469847C8B9204600F0DE
:10434C00C6F9042570B1013D15F0FF050AD02046D1
:10435C0000F0AAF841F2883000F014FD204600F07D
:10436C00B6F9EFE7236820469B68BDE87040184714
:10437C0070BD00F02DBA70B5044608460E4601F02B
:10438C00B9FD03122370607085B202342A4631469F
:10439C00204601F0B7FD601970BD000030B5036117
:1043AC00039B0D4D028143610C4A05600023416063
:1043BC00C260C0F8BC30C0F8C030C0F8C430C0F81F
:1043CC00C830C0F8CC308361C36180F8203080F8ED
:1043DC002130A0F8B83030BDD05F0D00F95F0D0072
:1043EC002DE9F74F0FFA83FA036801929D690122B8
:1043FC00534606460C46A847C0B2012801D00020FF
:10440C0034E0651C04F1050B80464FF0000933685D
:10441C009B6901221F46294653463046B847C0B215
:10442C000128ECD115F8013B03F07F025D4502FB3E
:10443C0008994FEAC818E2D01B06E8D4019B2C1B44
:10444C001B1B013B9945336806D9019A9F69013AB8
:10445C00121B534692B203E09F691FFA89F253462E
:10446C0029463046B847C0B2204480B203B0BDE8FC
:10447C00F08F0000F8B505460C4616461F463B4625
:10448C00962221462846FFF7ABFF48B12378B6EBBE
:10449C00131F05D000F004FE024900F036FCEEE7D5
:1044AC00F8BD00BFFA5F0D0010B5E02380F8223094
:1044BC00002380F82330036804465B69022200F174
:1044CC0022019847236820461B69BDE81040184715
:1044DC0038B504460846102300F8023B0D4629491E
:1044EC00FFF749FF0423037002234370A369ABB1A8
:1044FC001B789BB10623437094F82030012B01D11B
:10450C000E2302E0022B01D11E23437094F82130BC
:10451C00012B02BF437843F02003437023691B78BF
:10452C001BB1437863F07F03437063691B781BB145
:10453C00437843F040034370012383702C23C370F2
:10454C00E1680B781BB10430FFF715FF02E0037133
:10455C0043710630A16931B10B7823B1FFF70BFF22
:10456C00E169FFF708FF21690B780BB1FFF703FF37
:10457C0061690B780BB1FFF7FEFE401BC0B2831EC6
:10458C006B7038BD19600D002DE9F84305461046D7
:10459C000E4691461F4601F0ADFC9DF82480BDF8F7
:1045AC00204080B2B8F1000F01D1831C00E0031D44
:1045BC004FEA480230469BB242F03002234400F8E6
:1045CC00012B9BB203F07F02DB0918BF42F0800283
:1045DC0000F8012B002BF5D14946FFF7CCFE034622
:1045EC00B8F1000F0CD0B5F8B820120A0270B5F86B
:1045FC00B8204270B5F8B82001320233A5F8B820C3
:10460C0022463946184601F0E8FB2044801B80B254
:10461C00BDE8F88373B59DF8186000F122050446D7
:10462C008DE8480013460A462946FFF7ADFF23687C
:10463C0002465B6929462046984708B9002017E0D6
:10464C00B6B14FF4FA73962229462046FFF7C8FEFE
:10465C000428F3D194F822301B11042BEED1A38C37
:10466C00B4F8B8005BBA01339BB2C31A5842584134
:10467C0002B070BDF7B5054610461F460E461446EF
:10468C0001F038FC009783B2224631462846FFF7EA
:10469C00C1FF03B0F0BD38B51D4682230B700C462C
:1046AC00B0F8B810090AA170B0F8B830E370B0F8DF
:1046BC00B8100131A0F8B8101146201DFFF75BFEB1
:1046CC0000F8015B001BC0B2831E637038BD2DE97E
:1046DC00F0410368DB680446984718B94FF0FF3087
:1046EC00BDE8F08104F1220529462046FFF7F0FED3
:1046FC00236882B25B692946204698470028EDD092
:10470C0041F27073962229462046FFF769FEC0B22B
:10471C000428E3D1638CB3F5087FDFD194F825002E
:10472C0010B140B2BDE8F08104F1B80704F1CC0837
:10473C0057F8043FFBB103263A68294613791268EF
:10474C002046FFF7A8FF236882B25B692946204602
:10475C0098470028C2D04FF4FA7309222946204604
:10476C00FFF788FE38B9013E16F0FF06E4D16FF072
:10477C000100BDE8F0814745DAD10020BDE8F081A9
:10478C0010B580E80600037210BD1FB504460A225E
:10479C00084601A900F028FA237A01AA94E803003C
:1047AC00FFF768FF04B010BDFFF7EFBF00F010B8C3
:1047BC0008B5024B1B689B68019308BD6802030097
:1047CC0008B5024B1B68DB68019308BD6802030047
:1047DC0008B5024B1B681B68019308BD2C02030033
:1047EC0008B5024B1B685B69019308BD6C020300A2
:1047FC0008B5024B1B685B68019308BD18020300E7
:10480C0008B5024B1B68DB68019308BD1802030056
:10481C0008B5024B1B685B69019308BD18020300C5
:10482C0008B5024B1B689B68019308BD4802030046
:10483C0008B5024B1B681B69019308BD48020300B5
:10484C0008B5024B1B685B69019308BD4802030065
:10485C0008B5024B1B685B6C019308BD4802030052
:10486C0008B5024B1B689B6C019308BD4802030002
:10487C0008B5024B1B685B69019308BD6402030019
:10488C0008B5024B1B681B6A019308BD6402030048
:10489C0008B5024B1B689B6A019308BD64020300B8
:1048AC0008B5024B1B681B68019308BD3C02030052
:1048BC0008B5024B1B68DB68019308BD3C02030082
:1048CC0008B5024B1B681B69019308BD3C02030031
:1048DC0008B5024B1B685B69019308BD3C020300E1
:1048EC0008B5024B1B689B69019308BD3C02030091
:1048FC0008B5024B1B68DB69019308BD3C02030041
:10490C0008B5024B1B689B6A019308BD3C0203006F
:10491C0008B5024B1B689B69019308BD3802030064
:10492C0008B5024B1B68DB69019308BD3802030014
:10493C0008B5024B1B681B6A019308BD38020300C3
:10494C0008B5024B1B689B6A019308BD3802030033
:10495C0008B5024B1B681B6B019308BD38020300A2
:10496C0008B5024B1B689B6B019308BD3802030012
:10497C0008B5024B1B681B68019308BD4C02030071
:10498C0008B5024B1B681B69019308BD4C02030060
:10499C0008B5024B1B685B69019308BD4C02030010
:1049AC0008B5024B1B689B69019308BD4C020300C0
:1049BC0008B5024B1B68DB69019308BD4C02030070
:1049CC0008B5024B1B681B6A019308BD4C0203001F
:1049DC0008B5024B1B685B6B019308BD60020300BA
:1049EC0008B5024B1B681B6D019308BD60020300E8
:1049FC0008B5024B1B685B68019308BD20020300DD
:104A0C0008B5024B1B685B69019308BD20020300CB
:104A1C0008B5034B1B68D3F88830019308BD000020
:104A2C002002030008B5034B1B68D3F894300193A4
:104A3C0008BD00002002030008B5024B1B685B6830
:104A4C00019308BD4002030008B5024B1B689B682C
:104A5C00019308BD4002030008B5024B1B68DB68DC
:104A6C00019308BD4002030008B5024B1B681B698B
:104A7C00019308BD4002030008B5024B1B685B693B
:104A8C00019308BD4002030008B5024B1B689B69EB
:104A9C00019308BD4002030008B5024B1B68DB699B
:104AAC00019308BD4002030008B5024B1B681B6A4A
:104ABC00019308BD4002030008B5024B1B681B6B39
:104ACC00019308BD4002030008B5024B1B685B6BE9
:104ADC00019308BD4002030008B5024B1B68DB6B59
:104AEC00019308BD4402030008B5024B1B681B6808
:104AFC00019308BD1C02030008B5024B1B685B68E0
:104B0C00019308BD1C02030008B5024B1B68DB6B4C
:104B1C00019308BD1C020300002211464068FFF7F8
:104B2C00C3BF002211464068FFF7CEBF0022406889
:104B3C00FFF7C2BF002281F001014068FFF7ACBF54
:104B4C0000231A4619464068FFF79EBF00231A46F9
:104B5C0019464068FFF790BF002211464068FFF7E6
:104B6C0083BF002211464068FFF76EBF002202216E
:104B7C004068FFF771BF00231A464068FFF75CBF1F
:104B8C00024B03225A60024A1A607047F8E3032072
:104B9C00E8610D0010B50446006818B1FFF7ACFFD2
:104BAC000023236010BD10B50446FFF7F3FF204629
:104BBC0010BD000010B5094C00204FF6FF732060AB
:104BCC00A080A07120816381FFF712FF2046044A68
:104BDC000449BDE8104000F083BF00BF00E403208F
:104BEC00DCE20320B34B0D002DE9F041931E232B87
:104BFC0015468CB034BF15460A2500230A2D0C46E9
:104C0C008DF82C3007D1984205DA2D2301F10108DB
:104C1C000B70404201E0B0B1A0460DF12B0601270C
:104C2C002A46014601A801F0B9F8029B0198092B0C
:104C3C00CCBF3722302252FA83F306F80139013700
:104C4C000028EDD106E030238DF82B30A0460DF175
:104C5C002A0602273A46711C404601F0B3F820465A
:104C6C000CB0BDE8F08110B50446006808B1FFF740
:104C7C00F7FD204610BD000010B5064C0023204661
:104C8C002360FFF7E5FD2046034A0449BDE81040C8
:104C9C0000F026BF0CE40320DCE20320734C0D0073
:104CAC00F8B506460D468F180024BD420CD033686B
:104CBC0015F8011B9B6830469847002801DB04441B
:104CCC00F3E7002C08BF04462046F8BD70B5054636
:104CDC000C46084649B101F00DF92B6802462146F5
:104CEC002846DB68BDE87040184770BD03689B68B8
:104CFC00184738B50D210546FFF7F8FF0A21044681
:104D0C002846FFF7F3FF204438BD38B50546FFF7BA
:104D1C00DDFF04462846FFF7ECFF204438BD30B5D4
:104D2C008BB00B4600218DF82410012A98BF0A2263
:104D3C000DF12304B3FBF2F505FB123303F0FF0373
:104D4C00092B94BF30333733DBB2214604F80139D9
:104D5C002B46002DEED1FFF7B9FF0BB030BD000094
:104D6C00014B024A1A60704710E4032087620D0061
:104D7C00024B1A68024B1A60704700BF74E20320A2
:104D8C0014E403200021FFF73BBE10B583680446F2
:104D9C0013B1032201469847204610BD10B50446B6
:104DAC00FFF7F3FF204610BD0348044A04490023D3
:104DBC00836000F095BE00BF18E40320DCE2032002
:104DCC00A94D0D0008B50C4B33B100F069F903681F
:104DDC001B699847002809DC084B63B100F0DEF929
:104DEC0003681B699847002803DC08BDAFF30080FB
:104DFC00F2E7AFF3008008BD0000000000000000E7
:104E0C0008B5FFF7DFFFFFF703FD014B186008BD86
:104E1C004CE703200248034A0349121A00F0D2BFA0
:104E2C0000F4032004F4032050650D0007B50023A3
:104E3C0000931A466FF07701FFF7F4FD03B05DF8AD
:104E4C0004FB000007B543880A2B08D0502B09D16E
:104E5C00094B1B683BB103B05DF804EB1847FFF737
:104E6C00E5FF06E0002300931A466FF07701FFF789
:104E7C00D9FD03B05DF804FB28E4032038B5104CD1
:104E8C00104D2368AB42104B0CBF012200221A704C
:104E9C0002D0FFF7BFFF2560FFF7AAFC044600F025
:104EAC00BFFF0A4B13B12046AFF300800021074827
:104EBC00FFF712FE00210648BDE83840FFF7A8BDF9
:104ECC0000F403201E1C279A2CE403200000000091
:104EDC00514E0D00704710B51821044600F005FE28
:104EEC00204610BDF0B5037D062B8DB00E4600F1AB
:104EFC0004074FF0000402D000F1080518E00CADD7
:104F0C00394605F8304D2F232A460A20FFF7B0FC0E
:104F1C00284600F0EFFF33680246DB68294630462E
:104F2C0098470FE024B12E213046FFF7DFFE0444F2
:104F3C0015F8011D0A223046FFF7F1FEBD4204446C
:104F4C00F0D120460DB0F0BD10B5054B0446112232
:104F5C0040F8043B002100F05BFF204610BD00BF71
:104F6C0018630D000346074A10B543F8042B01F1F2
:104F7C00100251F8044B43F8044B9142F9D10A78D2
:104F8C001A7010BD18630D00037D042B01D140680D
:104F9C0008E0062B0AD1436853B9836843B9C36848
:104FAC0033B90069003018BF0120704700207047EA
:104FBC000120704710B59DF8084044EA032343EAEA
:104FCC00024242EA016104234160037510BD37B50A
:104FDC000D788B784A78C97800912946FFF7EAFF5B
:104FEC0003B030BD41747047704708B50021007C98
:104FFC00FFF7D6FC30EA200028BF4FF0FF3008BD89
:10500C0008B50121007CFFF7CBFC30EA200028BF5B
:10501C004FF0FF3008BD08B5007CFFF7B9FC20EA63
:10502C00E07008BD08B5007CFFF7AAFC20EAE07030
:10503C0008BD007CFFF7C4BC10B51421044600F079
:10504C0054FD204610BD38B50446007C0D46FFF7D4
:10505C009FFC002801DC607C28B12946207CFFF7EE
:10506C00A7FC20EAE07038BD10B50446002363604D
:10507C004FF47A73A360054B236001230846217417
:10508C0063741146FFF774FC204610BD2C630D00B1
:10509C0010B514220446002100F0BAFE204610BDC3
:1050AC0030B50E4D87B001A8FFF7F2FF296811F05B
:1050BC00010410D12846FEF7F9FF60B101AA214680
:1050CC000748FFF7D1FF2846FEF7F5FF054A0649CA
:1050DC00034800F005FD024807B030BD30E4032062
:1050EC0034E40320DCE20320F54F0D0070474174DB
:1050FC00704708B5007CFFF703FC20EAE07008BDA0
:10510C0008B5007CFFF7DCFB20EAE07008BD08B5B1
:10511C00007CFFF7E5FB30EA200028BF4FF0FF30A2
:10512C0008BD08B5007CFFF7D3FB30EA200028BF90
:10513C004FF0FF3008BD007CFFF7DABB10B514212F
:10514C00044600F0D2FC204610BD70B5457C0446E8
:10515C000E4625B9007CFFF7D3FB002805DD314650
:10516C00207CBDE87040FFF7A3BB284670BD000053
:10517C0010B5044608461146002262604FF47A725C
:10518C00A260054A22600122207462741A46FFF75D
:10519C0087FB204610BD00BF5C630D0038B50C4D7D
:1051AC00296811F0010411D12846FEF77FFF68B180
:1051BC00084A094B09482146FFF7DAFF2846FEF753
:1051CC007AFF074A0749054800F08AFC034838BDB6
:1051DC00E0E40320E4E403205CE4032048E403203F
:1051EC00DCE20320F9500D0010B5044630B100F09C
:1051FC003FFE90FBF4F303FB140010BD10BD88427E
:10520C0010B5044604DA081AFFF7EEFF204410BD6F
:10521C0010BD002211464068FFF746BC0022114623
:10522C004068FFF751BC00224068FFF745BC0022E4
:10523C0081F001014068FFF72FBC00231A460121C1
:10524C004068FFF721BC00231A4619464068FFF757
:10525C0013BC002211464068FFF706BC0022114621
:10526C004068FFF7F1BB002202214068FFF7F4BB56
:10527C0000231A464068FFF7DFBB38B5054688B1F6
:10528C0004684CB1A3681BB1032221462046984701
:10529C001021204600F029FC28461421BDE8384096
:1052AC0000F023BC38BD10B103685B681847704729
:1052BC0010B503680446BBB15868FFF7B1FA78B96A
:1052CC0023685A7C12B95868FFF7B2FA23685868F9
:1052DC00FFF7B6FA20680023236028B1FFF7CDFF53
:1052EC00206808B1FFF7C9FF204610BD38B5044649
:1052FC00D0F8C40108B1FEF7CCFED4F8C00108B157
:10530C00FFF7AEFAD4F8BC5135B12846FFF7D0FF01
:10531C000421284600F0E9FB206808B1FFF7C3FF21
:10532C00204638BD10B5044B044640F8083BFFF747
:10533C00DDFF204610BD00BF8C630D0038B50E4C50
:10534C000E4B23600025022304F5E4706360A56016
:10535C00C4F8C451C4F8C851FFF77AFA084BC4F822
:10536C00CC5184F8D05123602046064A0649BDE84A
:10537C00384000F0B5BB00BF68E5032074640D0035
:10538C008C630D00DCE2032031530D0037B502AC09
:10539C00036804F8011DDD6B01224FF0FF33214639
:1053AC00A84703B030BD10B40368DC6B4FF0FF337B
:1053BC00A4465DF8044B604737B502AC036804F8AB
:1053CC00011DDD6B214613460122A84703B030BDF9
:1053DC00704738B543691A68002A044605DAB3F8F1
:1053EC008620B3F884309A4201D001250BE0036883
:1053FC001B699847002814BF0125002503D1236899
:10540C002046DB6A9847284638BD43691868C04374
:10541C00C00F704770470020704710B51421044628
:10542C0000F063FB204610BDFEF731BE7FB516467B
:10543C0000224260029203925A1C04460D4608D088
:10544C004FF47A72B3FBF2F1029102FB11314A4331
:10545C00039260690823009341F205026B4440F605
:10546C00FF710068FFF754FA002808DB606900231D
:10547C00324629460068FFF76BFA002804DAFFF77A
:10548C0043FB03686360002004B070BD10B5036873
:10549C0004469B689847A368013BA3602BB923681B
:1054AC002046DB68BDE81040184710BD70B50446B7
:1054BC004D69054B44F8043B8C3506460FCD0FC4A3
:1054CC002B682370304670BD18630D0010B543690E
:1054DC00B3F88620B3F884309A42044605D062694A
:1054EC00B2F884301344187910BD03681B699847CF
:1054FC000028F4D14FF0FF3010BD10B54369B3F85C
:10550C008620B3F884309A42044608D06269B2F817
:10551C008430591C1344A2F88410187910BD036808
:10552C001B6998470028F1D14FF0FF3010BDF8B53A
:10553C0043691746B3F88620B3F884309A4205467F
:10554C000E4606D103681B69984710B94FF0FF341B
:10555C0014E06969B1F88430B1F88640E41ABC42B1
:10556C0028BF3C46194422460431304600F02AFC40
:10557C006A69B2F884302344A2F884302046F8BD1E
:10558C002DE9F0439846036893B0DB6A0D46064656
:10559C001746984712AB002443F8484D2246214643
:1055AC002846FFF70DF9814600283DD1009B002BC2
:1055BC0056D05B69002B53D006A8FFF7C5FC009BA7
:1055CC005C696378022B01D1211D13E00A2B14D1E5
:1055DC001122494601A800F01BFCA36833BBE36809
:1055EC0023BB4FF6FF702569FFF74AF985421DD1A1
:1055FC0004F1140106A8FFF7EAFC06A8FFF7C4FCA7
:10560C0000282DD0336807ADD3F82090184B0C939D
:10561C000FCD0DAC0FC42B6823703A4643460CA932
:10562C003046C84781461BE0A14619E004F1080347
:10563C0001AD1834186859682A4603C20833A342CE
:10564C001546F7D1062301A90CA80DAD8DF8143021
:10565C00FFF788FC0FCD07AC0FC42B682370CCE789
:10566C000098FFF7A5F8484613B0BDE8F08300BFDB
:10567C0018630D0042690023A2F884304269A2F835
:10568C00863070472DE9F0411E4603680C468AB0FF
:10569C00DB6A054617469847237DD5F81480042B02
:1056AC000CBF02200A2006220121FFF759F9C8F885
:1056BC0000006B691B68002B18DB2846FFF7DAFF2C
:1056CC00D6B1002303A9F0B20393ADF81030FFF765
:1056DC0087F858B968690623009341F20B0203ABB3
:1056EC0040F6FF710068FFF713F928B12B682846C4
:1056FC00DB6A002498473BE01C263246002103A8B5
:10570C0000F086FB237D8DF80C60042B0CD102235A
:10571C0038468DF80D30FFF7BBF8ADF80E00606819
:10572C00FFF7AEF8049013E00A2338468DF80D30DD
:10573C00FFF7AEF805AEADF80E00231D04F114070B
:10574C0018685968324603C20833BB421646F7D173
:10575C006B691C2203A91868FFF7EAF80028C5D169
:10576C0004340FCC6D698C350FC523682B70012464
:10577C0020460AB0BDE8F08110B5436904461868AC
:10578C00002801DBFFF7CCF863694FF0FF321A6099
:10579C006069112200218C3000F03AFB2046BDE8F4
:1057AC001040FFF767BF000030B54269B2F8863091
:1057BC008BB004461BB1B2F884209A4240D0636986
:1057CC00186800283FDBB3F886507F2D3BD8191D95
:1057DC00C5F1800208232944FFF7B2F800280CDD3C
:1057EC006369B3F886200AB9A3F884206269B2F819
:1057FC0086301844A2F8860025E0FFF785F9036887
:10580C000B2B20D0FFF780F903680B2B1BD0202328
:10581C00002502930395FFF777F9036801930E4B6C
:10582C00009302AA2B460D493220FFF7D9F8636981
:10583C001868FFF775F863694FF0FF321A6002E0E1
:10584C00FFF718FFBBE76269B2F88630B2F8840044
:10585C00181A0BB030BD00BF27640D0020640D007A
:10586C0010B5002304460160A0F88430A0F88630FF
:10587C008830FFF769FB204610BD00004FF47A72A8
:10588C0070B500238260144A4360026043618361F7
:10589C000446A0200E46FEF7F8FB054610B1314633
:1058AC00FFF7DEFF1420FEF7F0FB034628B10122C0
:1058BC0042608260094A02600561A0696561A3616A
:1058CC0028B14368013B43600BB9FFF7DFFD20466D
:1058DC00FFF7D0FE204670BDDC630D00C0630D00E9
:1058EC0010B54FF0FF310446FFF7C8FF204610BD3E
:1058FC0010B504460068002801DBFFF711F82046BC
:10590C0010BD10B504692046FFF7F2FF24B1204604
:10591C00BDE81040FEF7BBBB10BD0022114640682D
:10592C00FFF7A2B8002211464068FFF7BDB800226D
:10593C0011464068FFF7C8B800224068FFF7BCB8B2
:10594C00002281F001014068FFF7A6B800231A4637
:10595C0019464068FFF798B800231A461946406864
:10596C00FFF78AB8002211464068FFF76DB8002295
:10597C0002214068FFF770B800231A464068FFF711
:10598C005BB80000024B04225A60024A1A6070474E
:10599C003CE7032040640D0000231A464068FFF7E3
:1059AC004BB8002202214068FFF756B8002211467E
:1059BC004068FFF749B8002211464068FFF754B819
:1059CC0000231A4619464068FFF756B800231A46BA
:1059DC0019464068FFF758B8002281F00101406871
:1059EC00FFF75AB800224068FFF766B8002211464C
:1059FC004068FFF769B8002211464068FFF754B8B9
:105A0C002DE9F043002495B016460D460746FFF7E6
:105A1C009BFA214620220CA8009400F0F9F94023AF
:105A2C000C9321466B460CAA3046FEF7C9FE044681
:105A3C00002844D1024601216868FFF715F80221BD
:105A4C00804622466868FFF70FF8009E8146214683
:105A5C00002E34D0002932D17368022B02D00A2BCD
:105A6C0009D02AE0B8F1000F27D07169384604310B
:105A7C00FFF7ADFA20E0B9F1000F1ED074691122C6
:105A8C0001A800F0C5F906238DF8143001AD04F11E
:105A9C0008031834186859682A4603C20833A3420D
:105AAC001546F7D101A906A807ADFFF75BFA0FCD94
:105ABC003C1D0FC42B6823700121F669C8E70098C0
:105ACC00FEF776FE384615B0BDE8F083024B034A6C
:105ADC001A6000225A60704744E7032074640D007A
:105AEC000B460146184600F04BB9FEF7D0BA000041
:105AFC00184B1A68D1075CBF01221A60164B1A6842
:105B0C00D2075CBF01221A60144B1A68D0075CBF25
:105B1C0001221A60124B1A68D1075CBF01221A606D
:105B2C00104B1A68D2075CBF01221A600E4B1A6820
:105B3C00D0075CBF01221A600C4B1A68D1075CBFFE
:105B4C0001221A600A4B1A68D2075CBF01221A6044
:105B5C00704700BF6CE7032068E7032064E703206D
:105B6C0060E703205CE7032058E7032054E7032099
:105B7C0050E70320244B1A68D0075CBF01221A603F
:105B8C00224B1A68D1075CBF01221A60204B1A689D
:105B9C00D2075CBF01221A601E4B1A68D0075CBF8B
:105BAC0001221A601C4B1A68D1075CBF01221A60D3
:105BBC001A4B1A68D2075CBF01221A60184B1A687C
:105BCC00D0075CBF01221A60164B1A68D1075CBF64
:105BDC0001221A60144B1A68D2075CBF01221A60AA
:105BEC00124B1A68D0075CBF01221A60104B1A685E
:105BFC00D1075CBF01221A600E4B1A68D2075CBF3A
:105C0C0001221A60704700BF9CE7032098E703202D
:105C1C0094E7032090E703208CE7032088E7032018
:105C2C0084E7032080E703207CE7032078E7032048
:105C3C0074E7032070E70320244B1A68D0075CBF7D
:105C4C0001221A60224B1A68D1075CBF01221A602C
:105C5C00204B1A68D2075CBF01221A601E4B1A68CF
:105C6C00D0075CBF01221A601C4B1A68D1075CBFBD
:105C7C0001221A601A4B1A68D2075CBF01221A6003
:105C8C00184B1A68D0075CBF01221A60164B1A68B1
:105C9C00D1075CBF01221A60144B1A68D2075CBF93
:105CAC0001221A60124B1A68D0075CBF01221A60DD
:105CBC00104B1A68D1075CBF01221A600E4B1A6890
:105CCC00D2075CBF01221A60704700BFCCE70320EB
:105CDC00C8E70320C4E70320C0E70320BCE7032088
:105CEC00B8E70320B4E70320B0E70320ACE70320B8
:105CFC00A8E70320A4E70320A0E70320184B1A68A9
:105D0C00D1075CBF01221A60164B1A68D2075CBF20
:105D1C0001221A60144B1A68D0075CBF01221A606A
:105D2C00124B1A68D1075CBF01221A60104B1A681B
:105D3C00D2075CBF01221A600E4B1A68D0075CBFF9
:105D4C0001221A600C4B1A68D1075CBF01221A6041
:105D5C000A4B1A68D2075CBF01221A60704700BF59
:105D6C00ECE70320E8E70320E4E70320E0E7032067
:105D7C00DCE70320D8E70320D4E70320D0E7032097
:105D8C0010B5054C13462CB10A4601460220AFF360
:105D9C00008010BD204610BD00000000002910B589
:105DAC0091FBF2F402FB141304DB002B07DA013431
:105DBC009B1A04E0002BC4BF04F1FF349B18046051
:105DCC00436010BD10B5431E0A44914204D011F833
:105DDC00014B03F8014FF8E710BD884210B501EBF9
:105DEC00020301D8421E0BE09842FBD28118D21A52
:105DFC00D34204D013F8014D01F8014DF8E710BD62
:105E0C00994204D011F8014B02F8014FF8E710BD8C
:105E1C0002440346934202D003F8011BFAE7704791
:105E2C0038B5124B1C68A36B0546D3B91820FEF786
:105E3C005BFE43F20E33A06303804AF6CD334380FE
:105E4C0041F2342383804EF26D63C3804DF6EC63D4
:105E5C000381052343810B23838101220023C0E9A5
:105E6C000423A36B00221D615A6138BDD8E20320C4
:105E7C00194B10B51C68A36BD3B91820FEF734FE70
:105E8C0043F20E33A06303804AF6CD33438041F2D4
:105E9C00342383804EF26D63C3804DF6EC63038133
:105EAC00052343810B23838101220023C0E90423B2
:105EBC00A16B0A4C0B694869094A5C4302FB004020
:105ECC00A3FB02230132034443F10003C1E9042381
:105EDC0023F0004010BD00BFD8E203202DF4515830
:105EEC002D7F954C034611F8012B03F8012B002A4A
:105EFC00F9D17047034613F8012B002AFBD1181A6D
:105F0C000138704710B5034642B111F8014B03F844
:105F1C00014B013A002CF7D11A4400E010BD93421A
:105F2C0002D003F8014BFAE710BD00001D400D0034
:105F3C0059400D0085400D0089400D000000000007
:105F4C003C757365726E616D653E00696F2E6164A0
:105F5C006166727569742E636F6D003C6B65793E7A
:105F6C00003C757365726E616D653E2F6665656488
:105F7C00732F666565646E616D6531003C75736584
:105F8C00726E616D653E2F66656564732F6665651F
:105F9C00646E616D653200000000000000000000BE
:105FAC00C9400D009D410D0041420D00ED420D0018
:105FBC001F430D0055420D0095420D0000000000DE
:105FCC00000000000000000000000000A5400D00D3
:105FDC00A5400D00A5400D00A5400D00A5400D00ED
:105FEC00205B30780030005D2C20000A09004472E0
:105FFC006F707065642061207061636B657400550F
:10600C006E6B6E6F776E206572726F72004D5154AD
:10601C005400252525642E256466004661696C654F
:10602C006420746F207375627363726962650043D8
:10603C006F6E6E656374696F6E206661696C656402
:10604C00005468652053657276657220646F6573C1
:10605C00206E6F7420737570706F72742074686525
:10606C00206C6576656C206F6620746865204D51D8
:10607C0054542070726F746F636F6C2072657175FD
:10608C0065737465640054686520436C69656E744F
:10609C00206964656E746966696572206973206332
:1060AC006F7272656374205554462D382062757476
:1060BC00206E6F7420616C6C6F7765642062792040
:1060CC007468652053657276657200546865204D5E
:1060DC005154542073657276696365206973207519
:1060EC006E617661696C61626C65005468652064F0
:1060FC0061746120696E2074686520757365722007
:10610C006E616D65206F722070617373776F72644E
:10611C00206973206D616C666F726D6564004E6FE3
:10612C007420617574686F72697A656420746F206D
:10613C00636F6E6E65637400457863656564656452
:10614C00207265636F6E6E65637420726174652076
:10615C006C696D69742E20506C6561736520747266
:10616C007920616761696E206C617465722E0059CB
:10617C006F752068617665206265656E2062616E60
:10618C006E65642066726F6D20636F6E6E656374EE
:10619C00696E672E20506C6561736520636F6E7439
:1061AC0061637420746865204D515454207365727A
:1061BC007665722061646D696E6973747261746F57
:1061CC007220666F72206D6F7265206465746169F0
:1061DC006C732E000000000000000000834B0D00CB
:1061EC00794B0D006F4B0D00654B0D00594B0D009D
:1061FC004D4B0D00414B0D00394B0D002F4B0D003D
:10620C00254B0D000D5A0D006261756400536572CB
:10621C0069616C0053657269616C310074797065E9
:10622C0000706172616D00636D6400696400686E7A
:10623C0064007374726D0066696C74006C766C002B
:10624C0061646448616E646C65720072656D6F7632
:10625C006548616E646C657200656E756D48616E43
:10626C00646C657273004A534F4E53747265616D62
:10627C004C6F6748616E646C6572006170700025CC
:10628C003031307520005D200028293A2000205B39
:10629C0000636F6465203D200025690064657461AE
:1062AC00696C73203D20000D0A006C6E00666E0058
:1062BC00636F64650064657461696C006E6F6E6514
:1062CC0000747261636500696E666F007761726E4F
:1062DC000070616E696300616C6C005A00252B3094
:1062EC0033643A253032750025592D256D2D2564E2
:1062FC005425483A254D3A2553257A006173637429
:10630C00696D65000000000000000000F14E0D00FA
:10631C00E14E0D00E34E0D000000000000000000F7
:10632C00F54F0D0045500D0053500D00AD4C0D00B8
:10633C0031500D00F74F0D000D500D003F500D006A
:10634C0023500D00F14F0D00000000000000000074
:10635C00F9500D0049510D0057510D00AD4C0D0079
:10636C000D510D002F510D001B510D0043510D000F
:10637C00FB500D00FF500D0000000000000000005D
:10638C007D520D0073520D0069520D005F520D00CD
:10639C0053520D0047520D003B520D0033520D006D
:1063AC0029520D001F520D000D5A0D000000000067
:1063BC000000000021540D0027540D000F590D0052
:1063CC0035540D0023540D000000000000000000A7
:1063DC00CD400D0001410D0099530D00B3530D003C
:1063EC00B5570D0007550D00D9540D00DD530D00A8
:1063FC0091560D008D550D003B550D0085570D0028
:10640C00DF530D0017540D00C5530D0039540D000A
:10641C00B9540D00776972696E67007265637620F6
:10642C006572726F72203D20256400000000000030
:10643C000000000085590D007B590D0071590D00AD
:10644C0027590D0065590D0059590D004D590D0076
:10645C0045590D003B590D0031590D000D5A0D00D9
:10646C000000000000000000A5590D00AF590D0000
:10647C00B9590D00C3590D00CD590D00D9590D0056
:10648C00E5590D00F1590D00F9590D00035A0D0095
:10649C000D5A0D000000000000000000000000007C
:1064AC0000000000000000000000000000000000E0
:1064BC0000000000000000000000000000000000D0
:1064CC0000000000000000000000000000000000C0
:1064DC0000000000000000000000000000000000B0
:1064EC0000000000000000000000000000000000A0
:1064FC000000000043000000AD410D007F430D0083
:10650C00B9470D008D4B0D00C14B0D00854C0D0096
:10651C006D4D0D007D4D0D00B54D0D0049530D0019
:10652C0091590D00D95A0D00FD5A0D00815B0D00DB
:10653C00455C0D00095D0D0000000000000000002E
:04654C00000000004B
:046550000000000047
:1065540008630D0000000000A0640D00C0640D007D
:10656400E0640D00000000000000000000000000D6
:106574000000000000650D000000000000000000A5
:106584000000000000000000000000000000000007
:1065940000000000000000000000000000000000F7
:1065A40000000000000000000000000000000000E7
:0865B4000000000078E2032062
:1065BC00FFFFFFFF00000102030405060708090A9C
:1065CC000B0C0D0E0F101112131415161718191A97
:0865DC001B1C1D1E1F202800DE
:0465E400785634129F
:04000003D000401CCD
:00000001FF
