:02000002D0002C
:1040000000400D00745A0D00000006000C00050170
:084010000401DE0500000000C0
:0440180094560D00AD
:10401C0009480A49884208B505D0094A824202D0AB
:10402C00121A01F0EDFA0748074A0021121A01F0A2
:10403C00F2FA014808BD00BF30E30320E4590D003B
:10404C0098E3032098E30320F0E7032070B500F019
:10405C0023FD074C074BE41AA40800251E46A54275
:10406C0004D056F8253098470135F8E770BD00BFED
:10407C00E0590D00A4590D0000F013B808B500F07C
:10408C001FF8BDE8084000F0C9BC00F03BBB00F0D5
:10409C0039BB0078B0FA80F04009704701230370F7
:1040AC00704708B500F0FEFD4FF4165100F0E8FD26
:1040BC0000F0F8FD00F0EBFD0028F9D008BD000081
:1040CC0010B50A4C0A48012100F010F900F0EAFD85
:1040DC002368084A002100F016FC23680133236092
:1040EC003220BDE8104000F05BBC00BF9CE3032015
:1040FC00A0E30320A8560D0007B500F04FF90722E6
:10410C0008238DE80C00C82106230522024800F084
:10411C0005F803B05DF804FBA0E3032038B5836118
:10412C00049BC3610446059B426100250362056143
:10413C0005608562816090B2012101F05FF8208BEF
:10414C00012101F05BF8A08B012101F057F8208CC4
:10415C00012101F053F804236562E360204638BD69
:10416C0038B5C368022B04460D4617D1032915D860
:10417C00DFE801F002040A0C002100E00121A08A12
:10418C0001F04DF8012106E0012100E00021A08A98
:10419C0001F045F80021208B01F041F8E368042B75
:1041AC002FD1032D2DD8DFE805F00208161C0121B4
:1041BC00A08A01F034F8002104E00021A08A01F06B
:1041CC002EF80121208B01F02AF80121A08B01F09F
:1041DC0026F8002112E00021A08A01F020F801212C
:1041EC0004E00121A08A01F01AF80021208B01F0D3
:1041FC0016F80021A08B01F012F80121208C01F09F
:10420C000EF8E368052B70D1092D6ED8DFE805F0A8
:10421C00050B1523252B354355570021A08A00F09B
:10422C00FEFF012150E00021A08A00F0F8FF0121DF
:10423C00208B00F0F4FF00214AE00021A08A00F05E
:10424C00EEFF0121208B00F0EAFF0021A08B00F093
:10425C00E6FF012140E0002100E00121A08A00F0EE
:10426C00DEFF012104E00121A08A00F0D8FF00212B
:10427C00208B00F0D4FF002108E00121A08A00F07F
:10428C00CEFF0021208B00F0CAFF0121A08B00F093
:10429C00C6FF01210CE00121A08A00F0C0FF002123
:1042AC00208B00F0BCFF0121A08B00F0B8FF002197
:1042BC00208C00F0B4FF002112E0012100E000216D
:1042CC00A08A00F0ACFF0021208B00F0A8FF012198
:1042DC00A08B00F0A4FF0021208C00F0A0FF012196
:1042EC00A08CBDE8384000F09ABF38BDF8B5002965
:1042FC0081EAE1750446A5EBE17501DD012301E0DE
:10430C0001D00023236000270A26002D30D000F0B6
:10431C007DF8A36A6268C31A9342F6D32368A0623D
:10432C00012B236906D1A26801339342236107D183
:10433C00276105E00BB9A36823612369013B236165
:10434C00E368052B05F1FF35236904D193FBF6F1E6
:10435C0006FB113108E0074919400029BEBF01F1E5
:10436C00FF3161F0030101312046FFF7F9FECCE784
:10437C00F8BD00BF0300008000F010B808B5024B78
:10438C001B689B68019308BD6802030008B5024BCB
:10439C001B68DB68019308BD6802030008B5024B7B
:1043AC001B681B68019308BD2C02030008B5024B67
:1043BC001B689B68019308BD2C02030008B5024BD7
:1043CC001B68DB68019308BD2C02030008B5024B87
:1043DC001B681B69019308BD2C02030008B5024B36
:1043EC001B68DB69019308BD3002030008B5024B62
:1043FC001B681B6A019308BD3002030008B5024B11
:10440C001B685B68019308BD1802030008B5024BDA
:10441C001B681B69019308BD1802030008B5024B09
:10442C001B685B69019308BD1802030008B5024BB9
:10443C001B689B68019308BD4802030008B5024B3A
:10444C001B681B69019308BD4802030008B5024BA9
:10445C001B685B69019308BD4802030008B5024B59
:10446C001B685B6C019308BD4802030008B5024B46
:10447C001B689B6C019308BD4802030008B5024BF6
:10448C001B685B69019308BD6402030008B5024B0D
:10449C001B681B68019308BD3C02030008B5024B66
:1044AC001B68DB68019308BD3C02030008B5024B96
:1044BC001B681B69019308BD3C02030008B5024B45
:1044CC001B685B69019308BD3C02030008B5024BF5
:1044DC001B689B69019308BD3C02030008B5024BA5
:1044EC001B68DB69019308BD3C02030008B5024B55
:1044FC001B681B6A019308BD3C02030008B5024B04
:10450C001B689B6A019308BD3C02030008B5024B73
:10451C001B681B6A019308BD2802030008B5024BF7
:10452C001B685B6A019308BD2802030008B5024BA7
:10453C001B689B6A019308BD2802030008B5024B57
:10454C001B68DB6A019308BD2802030008B5024B07
:10455C001B681B6B019308BD2802030008B5024BB6
:10456C001B685B6B019308BD2802030008B5024B66
:10457C001B681B6C019308BD2802030008B5024B95
:10458C001B681B68019308BD4C02030008B5024B65
:10459C001B685B68019308BD4C02030008B5024B15
:1045AC001B681B69019308BD4C02030008B5024B44
:1045BC001B685B69019308BD4C02030008B5024BF4
:1045CC001B689B69019308BD4C02030008B5024BA4
:1045DC001B68DB69019308BD4C02030008B5024B54
:1045EC001B681B6A019308BD4C02030008B5024B03
:1045FC001B685B6A019308BD4C02030008B5024BB3
:10460C001B685B68019308BD2002030008B5024BD0
:10461C001B685B69019308BD2002030008B5034BBE
:10462C001B68D3F88830019308BD000020020300FA
:10463C0008B5034B1B68D3F89430019308BD0000F8
:10464C002002030008B5024B1B685B68019308BD90
:10465C004002030008B5024B1B689B68019308BD20
:10466C004002030008B5024B1B68DB68019308BDD0
:10467C004002030008B5024B1B681B69019308BD7F
:10468C004002030008B5024B1B685B69019308BD2F
:10469C004002030008B5024B1B689B69019308BDDF
:1046AC004002030008B5024B1B68DB69019308BD8F
:1046BC004002030008B5024B1B681B6A019308BD3E
:1046CC004002030008B5024B1B681B6B019308BD2D
:1046DC004002030008B5024B1B685B6B019308BDDD
:1046EC004002030008B5024B1B68DB6B019308BD4D
:1046FC004402030008B5024B1B681B68019308BDFC
:10470C001C02030008B5024B1B685B68019308BDD3
:10471C001C02030008B5024B1B685B6A019308BDC1
:10472C001C020300002211464068FFF7C3BF0022A1
:10473C0011464068FFF7CEBF00224068FFF7C2BFAA
:10474C00002281F001014068FFF7ACBF00231A463C
:10475C0019464068FFF79EBF00231A461946406869
:10476C00FFF790BF002211464068FFF783BF00227D
:10477C0011464068FFF76EBF002202214068FFF728
:10478C0071BF00231A464068FFF75CBF024B03223F
:10479C005A60024A1A607047CCE30320BC560D00E5
:1047AC00704710B50C21044600F0C0FD204610BD2A
:1047BC0010B5054B0360044601710846FFF70EFE69
:1047CC000023A360204610BDF0560D000079FFF7C2
:1047DC000DBE10B50446006818B1FFF793FF002317
:1047EC00236010BD10B50446FFF7F3FF204610BD43
:1047FC0010B5094C00204FF6FF732060A080A0710B
:10480C0020816381FFF7FAFE2046044A0449BDE883
:10481C00104000F07DBD00BFD4E3032098E30320DB
:10482C00F1470D0010B50446006808B1FFF71EFEF5
:10483C00204610BD10B5064C002320462360FFF720
:10484C000DFE2046034A0449BDE8104000F060BD4F
:10485C00E0E3032098E3032031480D00F8B5064649
:10486C000D468F180024BD420CD0336815F8011B7F
:10487C009B6830469847002801DB0444F3E7002C82
:10488C0008BF04462046F8BD70B505460C460846E0
:10489C0049B100F0F1FE2B68024621462846DB6840
:1048AC00BDE87040184770BD03689B68184738B561
:1048BC000D210546FFF7F8FF0A2104462846FFF7AD
:1048CC00F3FF204438BD30B58BB00B4600218DF87A
:1048DC002410012A98BF0A220DF12304B3FBF2F530
:1048EC0005FB123303F0FF03092B94BF303337332E
:1048FC00DBB2214604F801392B46002DEED1FFF72F
:10490C00C3FF0BB030BD0CB42DE9F04387B000AF42
:10491C0007F13804054654F8049B3C600E462346C8
:10492C004A461421381DFFF7F5FE132805D8391D0A
:10493C002846FFF7A9FF044613E000F1080323F013
:10494C000703E846ADEB030D411C23464A46684677
:10495C003C60FFF7DFFE69462846FFF795FF0446EB
:10496C00C5461EB12846FFF7A2FF044420461C375B
:10497C00BD46BDE8F04302B070470000014B024A4F
:10498C001A607047E4E303206B570D00024B1A6862
:10499C00024B1A60704700BF30E30320E8E30320AA
:1049AC000021FFF733BE10B58368044613B1032210
:1049BC0001469847204610BD10B50446FFF7F3FF9B
:1049CC00204610BD0348044A04490023836000F0CC
:1049DC009FBC00BFECE3032098E30320C5490D0006
:1049EC0008B50C4B33B100F05DF903681B699847AF
:1049FC00002809DC084B63B100F0D6F903681B6989
:104A0C009847002803DC08BDAFF30080F2E7AFF352
:104A1C00008008BD000000000000000008B5FFF792
:104A2C00DFFFFFF7FBFC014B186008BD30E70320EC
:104A3C000248034A0349121A00F0E2BD00F40320B5
:104A4C0004F40320E0590D0007B5002300931A4627
:104A5C006FF07701FFF7ECFD03B05DF804FB00008D
:104A6C0007B543880A2B08D0502B09D1094B1B687A
:104A7C003BB103B05DF804EB1847FFF7E5FF06E028
:104A8C00002300931A466FF07701FFF7D1FD03B0B6
:104A9C005DF804FBFCE3032038B5104C104D236883
:104AAC00AB42104B0CBF012200221A7002D0FFF750
:104ABC00BFFF2560FFF7A2FC044600F0B5FD0A4BD2
:104ACC0013B12046AFF3008000210748FFF70AFE20
:104ADC0000210648BDE83840FFF7A0BD00F40320D4
:104AEC001E1C279A00E40320000000006D4A0D00F4
:104AFC00704710B51821044600F018FC204610BD74
:104B0C00F0B5037D062B8DB00E4600F104074FF077
:104B1C00000402D000F1080518E00CAD394605F888
:104B2C00304D2F232A460A20FFF7A8FC284600F018
:104B3C00A3FD33680246DB682946304698470FE0F0
:104B4C0024B12E213046FFF7AFFE044415F8011DA9
:104B5C000A223046FFF7B7FEBD420444F0D120468E
:104B6C000DB0F0BD10B5054B0446112240F8043BC6
:104B7C00002100F050FD204610BD00BF0C580D0068
:104B8C000346074A10B543F8042B01F1100251F803
:104B9C00044B43F8044B9142F9D10A781A7010BDBA
:104BAC000C580D0010B59DF8084044EA032343EA65
:104BBC00024242EA016104234160037510BD37B51E
:104BCC000D788B784A78C97800912946FFF7EAFF6F
:104BDC0003B030BD41747047704708B50021007CAC
:104BEC00FFF7ECFC30EA200028BF4FF0FF3008BD87
:104BFC0008B50121007CFFF7E1FC30EA200028BF5A
:104C0C004FF0FF3008BD08B5007CFFF7CFFC20EA61
:104C1C00E07008BD08B5007CFFF7C0FC20EAE0702E
:104C2C0008BD007CFFF7DABC10B51421044600F077
:104C3C007DFB204610BD38B50446007C0D46FFF7C1
:104C4C00B5FC002801DC607C28B12946207CFFF7EC
:104C5C00BDFC20EAE07038BD10B50446002363604B
:104C6C004FF47A73A360054B23600123084621742B
:104C7C0063741146FFF782FC204610BD20580D00CE
:104C8C000022007CFFF782BC007CFFF7AFBCFFF773
:104C9C00FBBF10B514220446002100F0BCFC2046DA
:104CAC0010BD000030B50E4D87B001A8FFF7F1FF25
:104CBC00296811F0010410D12846FFF7EAF960B118
:104CCC0001AA21460748FFF7C7FF2846FFF7E6F978
:104CDC00054A0649034800F01BFB024807B030BDEB
:104CEC0004E4032008E4032098E30320E54B0D00C3
:104CFC0070474174704708B5007CFFF7FFFB20EA52
:104D0C00E07008BD08B5007CFFF7D0FB20EAE0702E
:104D1C0008BD08B5007CFFF7D9FB30EA200028BF9E
:104D2C004FF0FF3008BD08B5007CFFF7C7FB30EA39
:104D3C00200028BF4FF0FF3008BD007CFFF7CEBB32
:104D4C0010B51421044600F0F1FA204610BD70B5E0
:104D5C00457C04460E4625B9007CFFF7CFFB0028A6
:104D6C0005DD3146207CBDE87040FFF797BB284637
:104D7C0070BD000010B50446084611460022626062
:104D8C004FF47A72A260054A226001222074627488
:104D9C001A46FFF77BFB204610BD00BF50580D0094
:104DAC00007CFFF7A3BB000038B50C4D296811F04F
:104DBC00010411D12846FFF76CF968B1084A094B78
:104DCC0009482146FFF7D6FF2846FFF767F9074A3F
:104DDC000749054800F09CFA034838BDB4E40320A9
:104DEC00B8E4032030E403201CE4032098E3032000
:104DFC00FD4C0D007047F8B5064615460C468F184D
:104E0C00BC4206D0336814F8011B9B6830469847A7
:104E1C00F6E72846F8BD0022007CFFF777BB00219F
:104E2C00007CFFF77BBB0021007CFFF77FBB0021E0
:104E3C00007CFFF783BB0021007CFFF787BB10B51C
:104E4C001421044600F072FA204610BD10B5044639
:104E5C00002363604FF47A73A360044B21740846FB
:104E6C0023601146FFF782FB204610BD80580D00D1
:104E7C000021007CFFF772BB002211464068FFF74F
:104E8C0019BC002211464068FFF724BC0022406880
:104E9C00FFF718BC002281F001014068FFF702BC4B
:104EAC0000231A4601214068FFF7F4BB00231A4681
:104EBC0019464068FFF7E6BB002211464068FFF731
:104ECC00D9BB002211464068FFF7C4BB0022022167
:104EDC004068FFF7C7BB00231A464068FFF7B2BB18
:104EEC0038B5054688B104684CB1A3681BB10322E0
:104EFC002146204698471021204600F017FA2846F4
:104F0C001421BDE8384000F011BA38BD10B1036867
:104F1C005B681847704710B503680446BBB1586806
:104F2C00FFF784FA78B923685A7C12B95868FFF7EE
:104F3C0085FA23685868FFF789FA206800232360F4
:104F4C0028B1FFF7CDFF206808B1FFF7C9FF204655
:104F5C0010BD38B50446D0F8C40108B1FFF797F876
:104F6C00D4F8C00108B1FFF781FAD4F8BC5135B1BF
:104F7C002846FFF7D0FF0421284600F0D7F9206817
:104F8C0008B1FFF7C3FF204638BD000010B5044B35
:104F9C00044640F8083BFFF7DCFF204610BD00BF7D
:104FAC00A8580D0038B50E4C0E4B2360002502237B
:104FBC0004F5E4706360A560C4F8C451C4F8C8512A
:104FCC00FFF74CFA084BC4F8CC5184F8D05123604D
:104FDC002046064A0649BDE8384000F099B900BFA2
:104FEC003CE5032010590D00A8580D0098E3032050
:104FFC00994F0D00002211464068FFF73BBB002281
:10500C0011464068FFF756BB002211464068FFF777
:10501C0061BB00224068FFF755BB002281F0010103
:10502C004068FFF73FBB00231A4619464068FFF75C
:10503C0031BB00231A4619464068FFF723BB0022F8
:10504C0011464068FFF706BB002202214068FFF7BB
:10505C0009BB00231A464068FFF7F4BA024B04223E
:10506C005A60024A1A60704710E70320DC580D00A2
:10507C0000231A464068FFF7E5BA00220221406877
:10508C00FFF7F0BA002211464068FFF7E3BA00229E
:10509C0011464068FFF7EEBA00231A4619464068DD
:1050AC00FFF7F0BA00231A4619464068FFF7F2BA28
:1050BC00002281F001014068FFF7F4BA0022406839
:1050CC00FFF700BB002211464068FFF703BB00222C
:1050DC0011464068FFF7EEBA2DE9F043002495B075
:1050EC0016460D460746FFF73DFD214620220CA82B
:1050FC00009400F090FA40230C9321466B460CAAC6
:10510C003046FFF743F90446002844D102460121FA
:10511C006868FFF7AFFA0221804622466868FFF7FD
:10512C00A9FA009E81462146002E34D0002932D1A6
:10513C007368022B02D00A2B09D02AE0B8F1000FB9
:10514C0027D0716938460431FFF739FD20E0B9F1F9
:10515C00000F1ED07469112201A800F05CFA06231E
:10516C008DF8143001AD04F108031834186859682F
:10517C002A4603C20833A3421546F7D101A906A853
:10518C0007ADFFF7FDFC0FCD3C1D0FC42B68237042
:10519C000121F669C8E70098FFF7F0F8384615B01A
:1051AC00BDE8F083024B034A1A6000225A60704734
:1051BC0018E7032010590D0010B5044600F048F80C
:1051CC00FFF704FB28B1A4F10B03022B01D800203C
:1051DC0010BD00F077F8FFF74BFE08B1012CF6D9A3
:1051EC00FFF7E2FDFFF7DCFD18B1A4F10903012B79
:1051FC00EDD9232C8CBF0020012010BD232838B5FD
:10520C0004460D460AD8FF2908D0FFF7D5FF28B170
:10521C0029462046BDE83840FFF7C8B838BD38B538
:10522C0004460D46FFF7CAF8FF2810D0062804D80C
:10523C004D2323FA00F0C30709D42046FFF7BCFF27
:10524C0028B129462046BDE83840FFF7BFB838BD25
:10525C0038B50B4D296811F001040FD12846FEF723
:10526C0018FF58B121460748FFF7A2FA2846FEF767
:10527C0015FF054A0549034800F04AF8014838BDB6
:10528C002CE7032020E7032098E30320AD470D0013
:10529C0070B5044614252A46094E002100F0BBF9CE
:1052AC00258020253146A5602561284600F040F870
:1052BC0031466060284600F03BF8E060204670BD47
:1052CC003C590D0030B50E4D296811F0010487B022
:1052DC0013D12846FEF7DDFE78B101A8FFF7D8FF01
:1052EC0001AA21460748FFF7B1FD2846FEF7D6FE76
:1052FC00054A0649034800F00BF8024807B030BDD8
:10530C0034E7032038E7032098E30320014E0D0017
:10531C000B460146184600F065B90000024B1868B0
:10532C00BFF35F8F704700BF4CE70320FEF7ADBEA5
:10533C0000F000B810B5002814BF04460124204624
:10534C00FFF7D8F920B9FFF7E9FF08B18047F6E776
:10535C0010BD0000184B1A68D1075CBF01221A60FF
:10536C00164B1A68D2075CBF01221A60144B1A68DC
:10537C00D0075CBF01221A60124B1A68D1075CBFC0
:10538C0001221A60104B1A68D2075CBF01221A6006
:10539C000E4B1A68D0075CBF01221A600C4B1A68BE
:1053AC00D1075CBF01221A600A4B1A68D2075CBF96
:1053BC0001221A60704700BF6CE7032068E70320E6
:1053CC0064E7032060E703205CE7032058E7032031
:1053DC0054E7032050E70320244B1A68D0075CBF26
:1053EC0001221A60224B1A68D1075CBF01221A6095
:1053FC00204B1A68D2075CBF01221A601E4B1A6838
:10540C00D0075CBF01221A601C4B1A68D1075CBF25
:10541C0001221A601A4B1A68D2075CBF01221A606B
:10542C00184B1A68D0075CBF01221A60164B1A6819
:10543C00D1075CBF01221A60144B1A68D2075CBFFB
:10544C0001221A60124B1A68D0075CBF01221A6045
:10545C00104B1A68D1075CBF01221A600E4B1A68F8
:10546C00D2075CBF01221A60704700BF9CE7032083
:10547C0098E7032094E7032090E703208CE70320B0
:10548C0088E7032084E7032080E703207CE70320E0
:10549C0078E7032074E7032070E70320244B1A6895
:1054AC00D0075CBF01221A60224B1A68D1075CBF7F
:1054BC0001221A60204B1A68D2075CBF01221A60C5
:1054CC001E4B1A68D0075CBF01221A601C4B1A686D
:1054DC00D1075CBF01221A601A4B1A68D2075CBF55
:1054EC0001221A60184B1A68D0075CBF01221A609F
:1054FC00164B1A68D1075CBF01221A60144B1A684C
:10550C00D2075CBF01221A60124B1A68D0075CBF2D
:10551C0001221A60104B1A68D1075CBF01221A6075
:10552C000E4B1A68D2075CBF01221A60704700BF8D
:10553C00CCE70320C8E70320C4E70320C0E703201F
:10554C00BCE70320B8E70320B4E70320B0E703204F
:10555C00ACE70320A8E70320A4E70320A0E703207F
:10556C00184B1A68D1075CBF01221A60164B1A68D7
:10557C00D2075CBF01221A60144B1A68D0075CBFBB
:10558C0001221A60124B1A68D1075CBF01221A6003
:10559C00104B1A68D2075CBF01221A600E4B1A68B6
:1055AC00D0075CBF01221A600C4B1A68D1075CBF94
:1055BC0001221A600A4B1A68D2075CBF01221A60DA
:1055CC00704700BFECE70320E8E70320E4E7032083
:1055DC00E0E70320DCE70320D8E70320D4E703202F
:1055EC00D0E7032010B5054C13462CB10A460146F2
:1055FC000220AFF3008010BD204610BD000000005B
:10560C0010B5431E0A44914204D011F8014B03F823
:10561C00014FF8E710BD02440346934202D003F851
:10562C00011BFAE77047000038B5124B1C68A36BDE
:10563C000546D3B91820FFF75DF843F20E33A0638B
:10564C0003804AF6CD33438041F2342383804EF2FB
:10565C006D63C3804DF6EC630381052343810B23FB
:10566C00838101220023C0E90423A36B00221D6166
:10567C005A6138BD94E30320034613F8012B002A2A
:10568C00FBD1181A013870471D400D0059400D0010
:10569C0085400D0089400D0000000000737465709A
:1056AC00733A202569200A00000000000000000069
:1056BC008F470D0085470D007B470D0071470D008E
:1056CC0065470D0059470D004D470D0045470D002E
:1056DC003B470D0031470D00E5500D000000000068
:1056EC0000000000AD470D00AF470D00626175640E
:1056FC000053657269616C0053657269616C3100AD
:10570C007479706500706172616D00636D6400691D
:10571C006400686E64007374726D0066696C74006A
:10572C006C766C0061646448616E646C65720072C6
:10573C00656D6F766548616E646C657200656E753B
:10574C006D48616E646C657273004A534F4E5374AE
:10575C007265616D4C6F6748616E646C6572006157
:10576C00707000253031307520005D2000256400FC
:10577C002C200028293A2000205B00636F646520F0
:10578C003D200025690064657461696C73203D20BF
:10579C00000D0A0066006C6E00666E00636F646537
:1057AC000064657461696C006E6F6E650074726183
:1057BC00636500696E666F007761726E0065727268
:1057CC006F720070616E696300616C6C005A002529
:1057DC002B3033643A253032750025592D256D2D2B
:1057EC0025645425483A254D3A2553257A00617392
:1057FC006374696D6500000000000000000000008B
:10580C000D4B0D00FD4A0D00FF4A0D00000000007D
:10581C0000000000E54B0D00354C0D00434C0D0015
:10582C0069480D00214C0D00E74B0D00FD4B0D00A0
:10583C002F4C0D00134C0D00E14B0D00000000002F
:10584C0000000000FD4C0D004D4D0D005B4D0D009A
:10585C0069480D00114D0D00334D0D001F4D0D000D
:10586C00474D0D00FF4C0D00034D0D0000000000D6
:10587C0000000000014E0D004B4E0D00234E0D009C
:10588C00034E0D002B4E0D00334E0D003B4E0D0004
:10589C00434E0D000000000000000000E34E0D0020
:1058AC00D94E0D00CF4E0D00C54E0D00B94E0D005A
:1058BC00AD4E0D00A14E0D00994E0D008F4E0D00FA
:1058CC00854E0D00E5500D000000000000000000AA
:1058DC005F500D0055500D004B500D0001500D0048
:1058EC003F500D0033500D0027500D001F500D0080
:1058FC0015500D000B500D00E5500D000000000080
:10590C00000000007D500D0087500D0091500D00DF
:10591C009B500D00A5500D00B1500D00BD500D0059
:10592C00C9500D00D1500D00DB500D00E5500D009D
:10593C00000000000000000000000000000000005B
:10594C00000000000000000000000000000000004B
:10595C00000000000000000000000000000000003B
:10596C00000000000000000000000000000000002B
:10597C00000000000000000000000000000000001B
:10598C00000000000000000000000000000000000B
:10599C00000000004300000005410D0085430D0090
:1059AC0099470D00FD470D0041480D0089490D0038
:1059BC0099490D00D1490D00B14F0D0069500D00F2
:1059CC00B1510D0061530D00E5530D00A9540D00AC
:0459DC006D550D00F8
:0459E00000000000C3
:1059E400FA570D000000000040590D0060590D00E9
:1059F40080590D00000000000000000000000000BD
:105A040000000000A0590D0000000000000000008C
:105A14000000000000000000000000000000000082
:105A24000000000000000000000000000000000072
:105A34000000000000000000000000000000000062
:085A44000000000034E3032020
:105A4C00FFFFFFFF00000102030405060708090A17
:105A5C000B0C0D0E0F101112131415161718191A12
:085A6C001B1C1D1E1F20280059
:045A7400785634121A
:04000003D000401CCD
:00000001FF
